{
  "contractName": "Bank",
  "abi": [
    {
      "anonymous": false,
      "inputs": [
        {
          "indexed": true,
          "internalType": "address",
          "name": "previousOwner",
          "type": "address"
        },
        {
          "indexed": true,
          "internalType": "address",
          "name": "newOwner",
          "type": "address"
        }
      ],
      "name": "OwnershipTransferred",
      "type": "event"
    },
    {
      "anonymous": false,
      "inputs": [
        {
          "indexed": false,
          "internalType": "uint256",
          "name": "date",
          "type": "uint256"
        },
        {
          "indexed": false,
          "internalType": "uint256",
          "name": "value",
          "type": "uint256"
        }
      ],
      "name": "argentDepose",
      "type": "event"
    },
    {
      "anonymous": false,
      "inputs": [
        {
          "indexed": false,
          "internalType": "uint256",
          "name": "dateMinimum",
          "type": "uint256"
        }
      ],
      "name": "nouvelleEpargne",
      "type": "event"
    },
    {
      "inputs": [],
      "name": "owner",
      "outputs": [
        {
          "internalType": "address",
          "name": "",
          "type": "address"
        }
      ],
      "stateMutability": "view",
      "type": "function",
      "constant": true
    },
    {
      "inputs": [],
      "name": "renounceOwnership",
      "outputs": [],
      "stateMutability": "nonpayable",
      "type": "function"
    },
    {
      "inputs": [
        {
          "internalType": "address",
          "name": "newOwner",
          "type": "address"
        }
      ],
      "name": "transferOwnership",
      "outputs": [],
      "stateMutability": "nonpayable",
      "type": "function"
    },
    {
      "stateMutability": "payable",
      "type": "receive",
      "payable": true
    },
    {
      "inputs": [],
      "name": "sendEth",
      "outputs": [],
      "stateMutability": "payable",
      "type": "function",
      "payable": true
    },
    {
      "inputs": [],
      "name": "withdrawEth",
      "outputs": [],
      "stateMutability": "nonpayable",
      "type": "function"
    },
    {
      "inputs": [],
      "name": "getBalance",
      "outputs": [
        {
          "internalType": "uint256",
          "name": "",
          "type": "uint256"
        }
      ],
      "stateMutability": "view",
      "type": "function",
      "constant": true
    }
  ],
  "bytecode": "0x608060405234801561001057600080fd5b5061002d61002261003260201b60201c565b61003a60201b60201c565b6100fe565b600033905090565b60008060009054906101000a900473ffffffffffffffffffffffffffffffffffffffff169050816000806101000a81548173ffffffffffffffffffffffffffffffffffffffff021916908373ffffffffffffffffffffffffffffffffffffffff1602179055508173ffffffffffffffffffffffffffffffffffffffff168173ffffffffffffffffffffffffffffffffffffffff167f8be0079c531659141344cd1fd0a4f28419497f9722a3daafe3b4186f6b6457e060405160405180910390a35050565b610a1e8061010d6000396000f3fe6080604052600436106100595760003560e01c806306e99fef1461012a57806312065fe014610134578063715018a61461015f5780638da5cb5b14610176578063a0ef91df146101a1578063f2fde38b146101b857610125565b366101255760004714156100b657626ebe00426100769190610844565b6001819055507fd318d8cc27a3384d56b1bb01ad2b81352dcb7bd5fcff48dfa6378a4ea4f7b2306001546040516100ad91906107ef565b60405180910390a15b6001600260008282546100c99190610844565b9250508190555034600360006002548152602001908152602001600020819055507f2420857d3b8033ad61fd889b639bc54c42dd5f0c3aaaf27d6339e43329d45b6d423460405161011b92919061080a565b60405180910390a1005b600080fd5b6101326101e1565b005b34801561014057600080fd5b506101496102a8565b60405161015691906107ef565b60405180910390f35b34801561016b57600080fd5b5061017461032c565b005b34801561018257600080fd5b5061018b6103b4565b6040516101989190610774565b60405180910390f35b3480156101ad57600080fd5b506101b66103dd565b005b3480156101c457600080fd5b506101df60048036038101906101da91906106c0565b6104e7565b005b600047141561023957626ebe00426101f99190610844565b6001819055507fd318d8cc27a3384d56b1bb01ad2b81352dcb7bd5fcff48dfa6378a4ea4f7b23060015460405161023091906107ef565b60405180910390a15b60016002600082825461024c9190610844565b9250508190555034600360006002548152602001908152602001600020819055507f2420857d3b8033ad61fd889b639bc54c42dd5f0c3aaaf27d6339e43329d45b6d423460405161029e92919061080a565b60405180910390a1565b60006102b26105df565b73ffffffffffffffffffffffffffffffffffffffff166102d06103b4565b73ffffffffffffffffffffffffffffffffffffffff1614610326576040517f08c379a000000000000000000000000000000000000000000000000000000000815260040161031d906107cf565b60405180910390fd5b47905090565b6103346105df565b73ffffffffffffffffffffffffffffffffffffffff166103526103b4565b73ffffffffffffffffffffffffffffffffffffffff16146103a8576040517f08c379a000000000000000000000000000000000000000000000000000000000815260040161039f906107cf565b60405180910390fd5b6103b260006105e7565b565b60008060009054906101000a900473ffffffffffffffffffffffffffffffffffffffff16905090565b6103e56105df565b73ffffffffffffffffffffffffffffffffffffffff166104036103b4565b73ffffffffffffffffffffffffffffffffffffffff1614610459576040517f08c379a0000000000000000000000000000000000000000000000000000000008152600401610450906107cf565b60405180910390fd5b60015442101561049e576040517f08c379a0000000000000000000000000000000000000000000000000000000008152600401610495906107af565b60405180910390fd5b3373ffffffffffffffffffffffffffffffffffffffff166108fc479081150290604051600060405180830381858888f193505050501580156104e4573d6000803e3d6000fd5b50565b6104ef6105df565b73ffffffffffffffffffffffffffffffffffffffff1661050d6103b4565b73ffffffffffffffffffffffffffffffffffffffff1614610563576040517f08c379a000000000000000000000000000000000000000000000000000000000815260040161055a906107cf565b60405180910390fd5b600073ffffffffffffffffffffffffffffffffffffffff168173ffffffffffffffffffffffffffffffffffffffff1614156105d3576040517f08c379a00000000000000000000000000000000000000000000000000000000081526004016105ca9061078f565b60405180910390fd5b6105dc816105e7565b50565b600033905090565b60008060009054906101000a900473ffffffffffffffffffffffffffffffffffffffff169050816000806101000a81548173ffffffffffffffffffffffffffffffffffffffff021916908373ffffffffffffffffffffffffffffffffffffffff1602179055508173ffffffffffffffffffffffffffffffffffffffff168173ffffffffffffffffffffffffffffffffffffffff167f8be0079c531659141344cd1fd0a4f28419497f9722a3daafe3b4186f6b6457e060405160405180910390a35050565b6000813590506106ba816109d1565b92915050565b6000602082840312156106d6576106d5610905565b5b60006106e4848285016106ab565b91505092915050565b6106f68161089a565b82525050565b6000610709602683610833565b91506107148261090a565b604082019050919050565b600061072c602383610833565b915061073782610959565b604082019050919050565b600061074f602083610833565b915061075a826109a8565b602082019050919050565b61076e816108cc565b82525050565b600060208201905061078960008301846106ed565b92915050565b600060208201905081810360008301526107a8816106fc565b9050919050565b600060208201905081810360008301526107c88161071f565b9050919050565b600060208201905081810360008301526107e881610742565b9050919050565b60006020820190506108046000830184610765565b92915050565b600060408201905061081f6000830185610765565b61082c6020830184610765565b9392505050565b600082825260208201905092915050565b600061084f826108cc565b915061085a836108cc565b9250827fffffffffffffffffffffffffffffffffffffffffffffffffffffffffffffffff0382111561088f5761088e6108d6565b5b828201905092915050565b60006108a5826108ac565b9050919050565b600073ffffffffffffffffffffffffffffffffffffffff82169050919050565b6000819050919050565b7f4e487b7100000000000000000000000000000000000000000000000000000000600052601160045260246000fd5b600080fd5b7f4f776e61626c653a206e6577206f776e657220697320746865207a65726f206160008201527f6464726573730000000000000000000000000000000000000000000000000000602082015250565b7f7475206e2761732070617320617474656e647520617373657a206c6f6e67746560008201527f6d70730000000000000000000000000000000000000000000000000000000000602082015250565b7f4f776e61626c653a2063616c6c6572206973206e6f7420746865206f776e6572600082015250565b6109da8161089a565b81146109e557600080fd5b5056fea264697066735822122051c7709b86b3f97abe3510571fea5671e5c832ee80f68f4a7b2597fddd252b1564736f6c63430008070033",
  "immutableReferences": {},
  "source": "// SPDX-License-Identifier: GPL-3.0\npragma solidity >=0.7.0 <0.9.0;\n\nimport \"@openzeppelin/contracts/access/Ownable.sol\";\n\ncontract Bank is Ownable {\n    // address admin;\n    uint256 dateMinimum;\n    uint256 depotID;\n\n    mapping(uint256 => uint256) depots;\n\n    event nouvelleEpargne(uint256 dateMinimum);\n    event argentDepose(uint256 date, uint256 value);\n\n    //constructor(){\n    //    admin=msg.sender;\n    //}\n\n    receive() external payable {\n        if (address(this).balance == 0) {\n            dateMinimum = block.timestamp + 12 weeks;\n            emit nouvelleEpargne(dateMinimum);\n        }\n        depotID += 1;\n        depots[depotID] = msg.value;\n        emit argentDepose(block.timestamp, msg.value);\n    }\n\n    function sendEth() public payable {\n        if (address(this).balance == 0) {\n            dateMinimum = block.timestamp + 12 weeks;\n            emit nouvelleEpargne(dateMinimum);\n        }\n        depotID += 1;\n        depots[depotID] = msg.value;\n        emit argentDepose(block.timestamp, msg.value);\n    }\n\n    function withdrawEth() public onlyOwner {\n        // require(msg.sender==admin, \"tu n'es pas l'admin de ce contrat\");\n        require(\n            block.timestamp >= dateMinimum,\n            \"tu n'as pas attendu assez longtemps\"\n        );\n        payable(msg.sender).transfer(address(this).balance);\n    }\n\n    function getBalance() public view onlyOwner returns (uint256) {\n        return address(this).balance;\n    }\n}\n",
  "sourcePath": "/home/anas/dev/bankTest/contracts/Bank.sol",
  "compiler": {
    "name": "solc",
    "version": "0.8.7+commit.e28d00a7.Emscripten.clang"
  },
  "schemaVersion": "3.4.3",
  "updatedAt": "2021-11-09T10:36:08.295Z",
  "networkType": "ethereum",
  "devdoc": {
    "kind": "dev",
    "methods": {
      "owner()": {
        "details": "Returns the address of the current owner."
      },
      "renounceOwnership()": {
        "details": "Leaves the contract without owner. It will not be possible to call `onlyOwner` functions anymore. Can only be called by the current owner. NOTE: Renouncing ownership will leave the contract without an owner, thereby removing any functionality that is only available to the owner."
      },
      "transferOwnership(address)": {
        "details": "Transfers ownership of the contract to a new account (`newOwner`). Can only be called by the current owner."
      }
    },
    "version": 1
  },
  "userdoc": {
    "kind": "user",
    "methods": {},
    "version": 1
  }
}